S014000043616C63756C61746F7220312E73726563B5
S11300000C9464000C9481000C9481000C94810085
S11300100C9481000C9481000C9481000C94810058
S11300200C9481000C9481000C9481000C94810048
S11300300C9481000C9481000C9481000C94810038
S11300400C9481000C9481000C9481000C94810028
S11300500C9481009B019501A6019801A6019E01C3
S11300605301A800BB00CE00E100F40007011A010F
S11300702D014001A601A601A601A101A601A60128
S1130080A601A601A601A601A601A601A601A60134
S1130090A601A601A601A601A601A601A601A60124
S11300A0A601A601A601A601A601A601A601A60114
S11300B0A601A601A601A601A601A601A601A60104
S11300C0A601A601A601660111241FBECFE5D8E052
S11300D0DEBFCDBF10E0A0E6B0E0E6E3F0E102C091
S11300E005900D92AC3BB107D9F721E0ACEBB0E041
S11300F001C01D92A934B207E1F70E9483000C9459
S113010019080C9400000E9424070E9425050E94EF
S11301106B040E947C048823E1F30E949000F9CFD1
S11301208F929F92AF92BF92CF92DF92EF92FF9203
S11301300F931F93CF93DF93C82F90E0FC01BA97DE
S1130140EA33F10508F002C1E65DFF4F0C94F907AC
S1130150682F70E060537109072E000C880B990B0F
S11301606093450170934601809347019093480141
S11301700E94A905EBC0682F70E060537109072E37
S1130180000C880B990B6093450170934601809392
S11301904701909348010E94A905D8C0682F70E0D8
S11301A060537109072E000C880B990B609345016D
S11301B07093460180934701909348010E94A905DA
S11301C0C5C0682F70E060537109072E000C880BBE
S11301D0990B609345017093460180934701909376
S11301E048010E94A905B2C0682F70E060537109EC
S11301F0072E000C880B990B609345017093460100
S113020080934701909348010E94A9059FC0682FDD
S113021070E060537109072E000C880B990B6093F2
S113022045017093460180934701909348010E94D1
S1130230A9058CC0682F70E060537109072E000C6B
S1130240880B990B60934501709346018093470195
S1130250909348010E94A90579C0682F70E060530B
S11302607109072E000C880B990B6093450170935C
S1130270460180934701909348010E94A90566C0F6
S1130280682F70E060537109072E000C880B990BDE
S11302906093450170934601809347019093480110
S11302A00E94A90553C0682F70E060537109072E9E
S11302B0000C880B990B6093450170934601809361
S11302C04701909348010E94A90540C0109245013E
S11302D01092460110924701109248011092410178
S11302E010924201109243011092440110923D0178
S11302F010923E0110923F011092400110923C0175
S113030080E00DC0E82FF0E0EE0FFF1FEE0FFF1F9F
S1130310E454FF4F10821182128213828F5F803265
S113032088F381E00E94CA0411C00E943B050EC0FC
S11303300E943B050BC00E943B0508C00E943B0580
S113034005C00E943B0581E00E94CA0480ED8C0F29
S11303508A30D8F58091410190914201A0914301E6
S1130360B0914401880F991FAA1FBB1FAC01BD01A6
S1130370440F551F661F771F440F551F661F771FB5
S1130380840F951FA61FB71F409145015091460148
S11303906091470170914801840F951FA61FB71FF4
S11303A08093410190934201A0934301B09344018F
S11303B0E0913C0124E0E202F0011124E454FF4FF7
S11303C080839183A283B38379C2CB3231F0CD325F
S11303D021F0CA3211F0CF32E9F480913C018F5FF1
S11303E044E08402F0011124E454FF4F4C2F50E008
S11303F060E070E040835183628373838F5F8093F6
S11304003C0110924101109242011092430110925A
S1130410440154C2CD3309F051C200C1FC01EE0FB6
S1130420FF1FEE0FFF1FE454FF4F40815181628193
S113043073814A3251056105710509F05FC07C0181
S113044051E0E51AF1089701220F331F220F331FE1
S1130450F901E454FF4F7F012081318142815381AE
S1130460FC013196EE0FFF1FEE0FFF1FE454FF4F08
S113047060817181828193810E94A807F701608362
S113048071838283938331C0FC013296EE0FFF1F88
S1130490EE0FFF1FE454FF4F40815181628173814D
S11304A0FC01EE0FFF1FEE0FFF1FE454FF4F4083CC
S11304B0518362837383FC013196DC011396AA0F86
S11304C0BB1FAA0FBB1FA454BF4F8D919D910D90CC
S11304D0BC91A02DEE0FFF1FEE0FFF1FE454FF4F42
S11304E080839183A283B3831E5F812F90E08C1756
S11304F09D0754F2025000933C0110E0812F90E0DC
S1130500FC01EE0FFF1FEE0FFF1FE454FF4F40816D
S11305105181628173814F3251056105710509F082
S11305207BC0FC013196EE0FFF1FEE0FFF1FE4545A
S1130530FF4F2081318142815381211531054105CD
S11305405105A9F481E00E94CA0460E080E00E94A1
S1130550160688E990E00E94960564E081E00E9416
S1130560160689EA90E00E94960520E04DC1EC0150
S11305702197CC0FDD1FCC0FDD1FC454DF4F6881E2
S113058079818A819B810E94DA07288339834A838F
S11305905B8331C0FC013296EE0FFF1FEE0FFF1F8D
S11305A0E454FF4F4081518162817381FC01EE0F5D
S11305B0FF1FEE0FFF1FE454FF4F408351836283FC
S11305C07383FC013196DC011396AA0FBB1FAA0F9B
S11305D0BB1FA454BF4F8D919D910D90BC91A02D34
S11305E0EE0FFF1FEE0FFF1FE454FF4F8083918334
S11305F0A283B3831E5F812F90E040913C01242F9E
S1130600042E000C330B2F5F3F4F8217930714F215
S1130610425040933C0110E01F5F01C010E0812F65
S113062090E000913C01C02F002E000CDD0B2196C0
S11306308C179D070CF4F2CE98CFFC01EE0FFF1F30
S1130640EE0FFF1FE454FF4FC080D180E280F3809F
S1130650FBE2CF16D104E104F10409F05DC0DC0132
S11306601197AA0FBB1FAA0FBB1FA454BF4F8D9095
S11306709D90AD90BC901397FC013196EE0FFF1F37
S1130680EE0FFF1FE454FF4FC080D180E280F3805F
S1130690C80CD91CEA1CFB1CCD92DD92ED92FC9295
S11306A0139731C0FC013296EE0FFF1FEE0FFF1FB0
S11306B0E454FF4FC080D180E280F380FC01EE0F50
S11306C0FF1FEE0FFF1FE454FF4FC082D182E2826E
S11306D0F382FC013196DC011396AA0FBB1FAA0F0B
S11306E0BB1FA454BF4F8D919D910D90BC91A02D23
S11306F0EE0FFF1FEE0FFF1FE454FF4F8083918323
S1130700A283B3832E5F822F90E08417950754F25F
S1130710325030933C0120E0E22FF0E0DF01AA0FD9
S1130720BB1FAA0FBB1FA454BF4F8D919D910D9069
S1130730BC91A02D8D97A105B10509F064C0DF011E
S11307401197AA0FBB1FAA0FBB1FA454BF4F4D91F3
S11307505D916D917C9113973196EE0FFF1FEE0F13
S1130760FF1FE454FF4FC080D180E280F3804C1916
S11307705D096E097F094D935D936D937C93139787
S113078031C0FC013296EE0FFF1FEE0FFF1FE45441
S1130790FF4F4081518162817381FC01EE0FFF1F85
S11307A0EE0FFF1FE454FF4F408351836283738332
S11307B0FC013196DC011396AA0FBB1FAA0FBB1FC5
S11307C0A454BF4F8D919D910D90BC91A02DEE0F1F
S11307D0FF1FEE0FFF1FE454FF4F80839183A2831A
S11307E0B3832E5F822F90E030913C01432F032E80
S11307F0000C550B4F5F5F4F8417950714F232506E
S113080030933C0120E02F5F822F90E030913C0137
S1130810432F032E000C550B4F5F5F4F8417950732
S11308200CF40BCF20E020C0880F991F880F991F6C
S1130830FC01E454FF4FC080D180E280F3808091BA
S11308403D0190913E01A0913F01B09140018C0D7A
S11308509D1DAE1DBF1D80933D0190933E01A0934D
S11308603F01B09340012F5F822F90E084179507DA
S1130870DCF260913D0170913E0180913F019091C5
S1130880400160934101709342018093430190932E
S113089044010E94A90510923C0180E00DC0E82F9C
S11308A0F0E0EE0FFF1FEE0FFF1FE454FF4F108226
S11308B01182128213828F5F803288F3DF91CF918D
S11308C01F910F91FF90EF90DF90CF90BF90AF906A
S11308D09F908F90089561E08CE00E942E0661E065
S11308E08DE00E942E0661E08EE00E942E0661E0FB
S11308F08FE00E942E060895FF920F931F93CF93CB
S1130900DF931F92CDB7DEB71982F12C0CE038C00B
S113091060E0802F0E942E061AE12BC0BE016F5F9B
S11309207F4F812F0E94B5068981811121C0802FBC
S113093090E00C97212F30E02A513109880F991F3C
S1130940880F991F805A9F4FFC01E20FF31FF0801C
S113095006C0BE016F5F7F4F812F0E94B50689815B
S11309608823B9F38FE39CE90197F1F700C00000F5
S11309701F5F1E3198F261E0802F0E942E060F5FE8
S1130980003130F28F2D0F90DF91CF911F910F9195
S1130990FF9008951F93CF93DF931F92CDB7DEB7D7
S11309A0182F198260E081E00E942E0660E082E048
S11309B00E942E06BE016F5F7F4F83E00E940907ED
S11309C0612F6695687789818778682B83E00E9418
S11309D0F60661E082E00E942E068FE99FE001970F
S11309E0F1F700C0000060E082E00E942E06BE0124
S11309F06F5F7F4F83E00E940907812F90E0880F8B
S1130A00991F880F991F880F991F698167788877C4
S1130A10682B83E00E94F60661E082E00E942E06C5
S1130A208FE99FE00197F1F700C0000060E082E0E9
S1130A300E942E068FE19EE40197F1F700C00000AA
S1130A400F90DF91CF911F91089583E30E94CA0410
S1130A5082E30E94CA0488E20E94CA048CE00E94D5
S1130A60CA0481E00E94CA0486E00E94CA0482E0AB
S1130A700E94CA0408951F93CF93DF931F92CDB7AA
S1130A80DEB7182F198261E081E00E942E0660E033
S1130A9082E00E942E06BE016F5F7F4F83E00E94BA
S1130AA00907612F6695687789818778682B83E0C9
S1130AB00E94F60661E082E00E942E068FE99FE024
S1130AC00197F1F700C0000060E082E00E942E066A
S1130AD0BE016F5F7F4F83E00E940907812F90E082
S1130AE0880F991F880F991F880F991F698167784C
S1130AF08877682B83E00E94F60661E082E00E941A
S1130B002E068FE99FE00197F1F700C0000060E036
S1130B1082E00E942E068FE19EE40197F1F700C067
S1130B2000000F90DF91CF911F9108950F931F93B1
S1130B30CF938C01C0E003C00E943B05CF5FF80156
S1130B40EC0FF11D80818111F7CFCF911F910F918F
S1130B5008958F929F92AF92BF92CF92DF92EF92BD
S1130B60FF926B017C01672B682B692B19F480E3DE
S1130B700E943B05FF205CF48DE20E943B05F0944B
S1130B80E094D094C094C11CD11CE11CF11C61E020
S1130B9070E080E090E024C0DC01CB01880F991F55
S1130BA0AA1FBB1F4C015D01880C991CAA1CBB1C0D
S1130BB0880C991CAA1CBB1C880E991EAA1EBB1E5D
S1130BC0C701B6012AE030E040E050E00E94DA07B5
S1130BD0680D791D8A1D9B1DC22ED32EE42EF52E81
S1130BE0C114D104E104F104B9F612C02AE030E0E2
S1130BF040E050E00E94B807C22ED32EE42EF52E1A
S1130C0080E3860F0E943B056C2D7D2D8E2D9F2D3C
S1130C10613071058105910549F7FF90EF90DF90F0
S1130C20CF90BF90AF909F908F900895CF93DF9314
S1130C3000D0CDB7DEB790E8998390EC9A83E1E0D9
S1130C40F0E0EC0FFD1FE80FF11D8081860F0E947C
S1130C50CA040F900F90DF91CF910895982F969525
S1130C60969596958770662309F43FC0613009F024
S1130C707BC0913099F028F09230E9F0933041F143
S1130C8008954BB321E030E0B90102C0660F771F2D
S1130C908A95E2F7CB01842B8BBB089548B321E0FE
S1130CA030E0B90102C0660F771F8A95E2F7CB01E5
S1130CB0842B88BB089545B321E030E0B90102C01C
S1130CC0660F771F8A95E2F7CB01842B85BB0895C5
S1130CD042B321E030E0B90102C0660F771F8A9564
S1130CE0E2F7CB01842B82BB08959130A1F028F068
S1130CF09230F9F0933059F108954BB321E030E08C
S1130D00B90102C0660F771F8A95E2F7CB0180957F
S1130D1084238BBB089548B321E030E0B90102C0BD
S1130D20660F771F8A95E2F7CB018095842388BBF1
S1130D30089545B321E030E0B90102C0660F771F82
S1130D408A95E2F7CB018095842385BB089542B34D
S1130D5021E030E0B90102C0660F771F8A95E2F7FF
S1130D60CB018095842382BB0895982F9695969500
S1130D7096958770913099F028F09230E9F093308D
S1130D8041F1089529B330E0A90102C05595479572
S1130D908A95E2F7CA018170FB018083089526B326
S1130DA030E0A90102C0559547958A95E2F7CA013A
S1130DB08170FB018083089523B330E0A90102C050
S1130DC0559547958A95E2F7CA018170FB018083A6
S1130DD0089520B330E0A90102C0559547958A953E
S1130DE0E2F7CA018170FB01808308958695869598
S1130DF08695813041F028F0823039F0833039F023
S1130E0008956BBB089568BB089565BB089562BBE4
S1130E100895869586958695813051F028F0823024
S1130E2059F0833069F008958BB3FB0180830895F2
S1130E3088B3FB018083089585B3FB018083089503
S1130E4082B3FB018083089590E07EC0E92FF0E037
S1130E50EE0FFF1FE059FF4F8081282F269526951E
S1130E602695877031813323B9F1313009F06BC095
S1130E70213089F028F02230C9F0233011F163C009
S1130E804AB321E030E002C0220F331F8A95E2F713
S1130E90242B2ABB58C047B321E030E002C0220F04
S1130EA0331F8A95E2F7242B27BB4DC044B321E0BE
S1130EB030E002C0220F331F8A95E2F7242B24BBB3
S1130EC042C041B321E030E002C0220F331F8A95B3
S1130ED0E2F7242B21BB37C0213091F028F02230D7
S1130EE0D9F0233029F12FC04AB321E030E002C009
S1130EF0220F331F8A95E2F7209524232ABB23C0AF
S1130F0047B321E030E002C0220F331F8A95E2F795
S1130F102095242327BB17C044B321E030E002C04E
S1130F20220F331F8A95E2F72095242324BB0BC09C
S1130F3041B321E030E002C0220F331F8A95E2F76B
S1130F402095242321BB9F5F943108F47FCF08951B
S1130F50DB018F939F930E94FF07BF91AF91A29FE4
S1130F60800D911DA39F900DB29F900D11240895A3
S1130F70A1E21A2EAA1BBB1BFD010DC0AA1FBB1F99
S1130F80EE1FFF1FA217B307E407F50720F0A21B0B
S1130F90B30BE40BF50B661F771F881F991F1A9478
S1130FA069F760957095809590959B01AC01BD01A2
S1130FB0CF010895052E97FB1EF400940E94F107BB
S1130FC057FD07D00E94B80707FC03D04EF40C94D9
S1130FD0F10750954095309521953F4F4F4F5F4F06
S1130FE0089590958095709561957F4F8F4F9F4F91
S1130FF00895EE0FFF1F0590F491E02D09940E94CF
S11310000A08A59F900DB49F900DA49F800D911D7B
S113101011240895A29FB001B39FC001A39F700D36
S1131020811D1124911DB29F700D811D1124911DEC
S10910300895F894FFCFBF
S11310363132332B3435362D3738392A63303D2F48
S11310460201010103010401050106011A001B0046
S11310561C001D000C010D010E010F010000000013
S1131066000000000000000044697669646564209D
S11310764279205A65726F2100556E646566696E01
S10F108665642020202020202020200071
S9030000FC
