:100000000C942A000C9447000C9447000C94470071
:100010000C9447000C9447000C9447000C94470044
:100020000C9447000C9447000C9447000C94470034
:100030000C9447000C9447000C9447000C94470024
:100040000C9447000C9447000C9447000C94470014
:100050000C94470011241FBECFE5D8E0DEBFCDBF12
:1000600010E0A0E6B0E0E4EDF3E002C005900D92F0
:10007000AC39B107D9F720E0ACE9B0E001C01D927E
:10008000AD39B207E1F70E94B7000C94E8010C9477
:10009000000080919C0096EA980F9A3018F48456DC
:1000A00080939C0080919C00865F80939C000E94BE
:1000B0000701089590919C0087E69802812D1124F4
:1000C0008595859597FD8395880F282F220F220F00
:1000D000820F292F281B253019F4965090939C00ED
:1000E00080919C008F5F80939C000E94070108957F
:1000F000CF93DF93C0E0D0E080919C0097E6890227
:10010000912D11249595959587FD9395990F292FFC
:10011000220F220F920F891318C0845080939C00E5
:100120008C3F51F710929C0080E00E9407010E94D2
:10013000FD002FEF83E294EF215080409040E1F7E3
:1001400000C000000E9402010FC00E94070121961A
:10015000C83823E1D20781F680919C0081508093BA
:100160009C00C0E0D0E0C8CFDF91CF9108950E94FD
:10017000A4018AE10E94D600811103C00E944900B7
:10018000F8CF8BE10E94D600811103C00E945A0073
:10019000F0CF8CE10E94D600811103C00E9478004C
:1001A000E8CF80919C000E940701E3CF1F93CF937B
:1001B000DF9300D0CDB7DEB7182F81E089831A8294
:1001C000BE016F5F7F4F812F0E947C0106C0BE0180
:1001D0006E5F7F4F812F0E947C018A818823B9F353
:1001E0008FE39CE90197F1F700C0000089810F902F
:1001F0000F90DF91CF911F91089561E085E10E94FA
:100200004801089560E085E10E9448010895CF9378
:10021000DF93D82F60E087E10E94480161E086E12A
:100220000E944801EDECDE9FE12D1124CE2FC695F2
:10023000C695C6959C2F990F892F880F880F890F17
:10024000D81BED2FF0E0E658FF4F608180E00E9460
:1002500096018FE99FE00197F1F700C0000060E090
:1002600086E10E94480161E087E10E944801EC2F8D
:10027000F0E0E658FF4F608180E00E9496018FE930
:100280009FE00197F1F700C00000DF91CF91089542
:10029000E82FE695E695E69587706623B9F061301C
:1002A00051F5F0E0EE0FFF1FE457FF4F0190F08192
:1002B000E02D408121E030E0B90102C0660F771FD8
:1002C0008A95E2F7CB01842B80830895F0E0EE0F4E
:1002D000FF1FE457FF4F0190F081E02D408121E0A6
:1002E00030E0B90102C0660F771F8A95E2F7CB01B3
:1002F0008095842380830895E82FE695E695E6951A
:10030000282F2770F0E0EE0FFF1FEC57FF4F0190F2
:10031000F081E02D9081892F90E002C0959587951E
:100320002A95E2F78170FB01808308958695869572
:100330008695E82FF0E0EE0FFF1FE457FF4F019086
:10034000F081E02D6083089520E03EC0E22FF0E0D0
:10035000EE0FFF1FE05AFF4F9081892F86958695FB
:100360008695977031813323C1F0313061F5E82FE4
:10037000F0E0EE0FFF1FEC56FF4F0190F081E02DF3
:10038000308141E050E0BA0102C0660F771F9A95B4
:10039000E2F7CB01832B808316C0E82FF0E0EE0F4D
:1003A000FF1FEC56FF4F0190F081E02D308141E0BE
:1003B00050E0BA0102C0660F771F9A95E2F7CB01B1
:1003C0008095832380832F5F2D3008F4BFCF08955D
:0403D000F894FFCFCF
:1003D4001A001B001C0001010201030104010501B4
:1003E400060107011601170115017E0CB69ECCDA31
:1003F400FA0EFECE39003600330030003B003800E0
:0C040400350032003A00370034003100AF
:00000001FF
