:100000000C942A000C94BE000C9447000C944700FA
:100010000C9447000C9447000C9447000C94EC019E
:100020000C9447000C94A8010C9463010C942201D9
:100030000C9447000C9447000C9447000C94470024
:100040000C94E5000C9447000C9447000C94470076
:100050000C94470011241FBECFE5D8E0DEBFCDBF12
:1000600010E0A0E6B0E0E8E4F6E002C005900D92F2
:10007000A836B107D9F720E0A8E6B0E001C01D928C
:10008000A83AB207E1F70E9451000C9422030C94A5
:10009000000082E10E946500089580E10E946500F1
:1000A00008950E941C0281E00E94A90069E470E0AA
:1000B0008AE00E94B5006DE470E086E00E94B50021
:1000C0000E94A0020E94BF02FFCF0E946800089514
:1000D000982F9695969596958770913099F028F07F
:1000E0009230E9F0933041F108954BB321E030E0D4
:1000F000B90102C0660F771F8A95E2F7CB0184270A
:100100008BBB089548B321E030E0B90102C0660F0F
:10011000771F8A95E2F7CB01842788BB089545B302
:1001200021E030E0B90102C0660F771F8A95E2F73F
:10013000CB01842785BB089542B321E030E0B901AB
:1001400002C0660F771F8A95E2F7CB01842782BB36
:100150000895882331F0813039F48FB780688FBFDC
:1001600008958FB78F778FBF0895E82FF0E0EE0FD7
:10017000FF1FE059FF4F7183608308951F920F9214
:100180000FB60F9211242F933F934F935F936F936A
:100190007F938F939F93AF93BF93EF93FF93E091E0
:1001A0007000F09171000995FF91EF91BF91AF91AF
:1001B0009F918F917F916F915F914F913F912F917F
:1001C0000F900FBE0F901F9018951F920F920FB6B1
:1001D0000F9211242F933F934F935F936F937F93CD
:1001E0008F939F93AF93BF93EF93FF9324B135B158
:1001F000A8E8B3E10E9413032FEF33E040E050E0A2
:100200000E94F102209368003093690040936A00D5
:1002100050936B00E0918E00F0918F00309709F0C1
:100220000995FF91EF91BF91AF919F918F917F9130
:100230006F915F914F913F912F910F900FBE0F9053
:100240001F9018951F920F920FB60F9211242F93A3
:100250003F934F935F936F937F938F939F93AF934E
:10026000BF93EF93FF9380916F008F5F80936F0038
:1002700090E0A0E0B0E04091A4005091A500609112
:10028000A6007091A70084179507A607B70751F439
:10029000E0918400F0918500099510926F008091A3
:1002A000A00082BFFF91EF91BF91AF919F918F917D
:1002B0007F916F915F914F913F912F910F900FBE62
:1002C0000F901F9018951F920F920FB60F92112446
:1002D0002F933F934F935F936F937F938F939F934E
:1002E000AF93BF93EF93FF9380916E008F5F8093E6
:1002F0006E008FEF8CBF80916E0090E0A0E0B0E0C8
:100300004091A4005091A5006091A6007091A700B3
:1003100084179507A607B70751F4E0918200F09182
:100320008300099510926E008091A0008CBFFF9110
:10033000EF91BF91AF919F918F917F916F915F915D
:100340004F913F912F910F900FBE0F901F901895D6
:100350001F920F920FB60F9211242F933F934F933A
:100360005F936F937F938F939F93AF93BF93EF931D
:10037000FF9380916D008F5F80936D0090E0A0E00F
:10038000B0E040919C0050919D0060919E00709162
:100390009F0084179507A607B70769F4E0918000CE
:1003A000F0918100099510926D00809198009091D4
:1003B00099009DBD8CBDFF91EF91BF91AF919F9131
:1003C0008F917F916F915F914F913F912F910F90FE
:1003D0000FBE0F901F9018951F920F920FB60F929D
:1003E00011242F933F934F935F936F937F938F933A
:1003F0009F93AF93BF93EF93FF9380916C008F5FB8
:1004000080936C00813039F4E0917C00F0917D00A4
:10041000099510926C00FF91EF91BF91AF919F9160
:100420008F917F916F915F914F913F912F910F909D
:100430000FBE0F901F90189590E07EC0E92FF0E05E
:10044000EE0FFF1FE05AFF4F8081282F269526953B
:100450002695877031813323B9F1313009F06BC0B3
:10046000213089F028F02230C9F0233011F163C027
:100470004AB321E030E002C0220F331F8A95E2F731
:10048000242B2ABB58C047B321E030E002C0220F22
:10049000331F8A95E2F7242B27BB4DC044B321E0DC
:1004A00030E002C0220F331F8A95E2F7242B24BBD1
:1004B00042C041B321E030E002C0220F331F8A95D1
:1004C000E2F7242B21BB37C0213091F028F02230F5
:1004D000D9F0233029F12FC04AB321E030E002C027
:1004E000220F331F8A95E2F7209524232ABB23C0CD
:1004F00047B321E030E002C0220F331F8A95E2F7B4
:100500002095242327BB17C044B321E030E002C06C
:10051000220F331F8A95E2F72095242324BB0BC0BA
:1005200041B321E030E002C0220F331F8A95E2F789
:100530002095242321BB9F5F943008F47FCF08953A
:1005400083B7877F83BF83B78F7B83BF89B7816082
:1005500089BF83B7856083BF8FB58E7F8FBD8FB511
:100560008D7F8FBD8EB588608EBD8EB58F7E8EBD22
:1005700089B7806189BF8EB585608EBD08958DE392
:1005800090E0A0E0B0E08093A4009093A500A09339
:10059000A600B093A70087EF90E0A0E0B0E08093C2
:1005A000A0009093A100A093A200B093A30087EFB6
:1005B00082BF8091A4009091A500A091A600B09167
:1005C000A7000196A11DB11D8093A4009093A500E2
:1005D000A093A600B093A70088E09DE39BBD8ABDD1
:1005E0000895A1E21A2EAA1BBB1BFD010DC0AA1F74
:1005F000BB1FEE1FFF1FA217B307E407F50720F08C
:10060000A21BB30BE40BF50B661F771F881F991F06
:100610001A9469F760957095809590959B01AC014F
:10062000BD01CF010895A29FB001B39FC001A39F58
:10063000700D811D1124911DB29F700D811D11241B
:08064000911D0895F894FFCF0D
:08064800100111011201000074
:00000001FF
