S00C0000434F54532E73726563DF
S11300000C942A000C943F000C943F000C943F0085
S11300100C943F000C943F000C943F000C943F0060
S11300200C943F000C943F000C943F000C943F0050
S11300300C943F000C943F000C943F000C943F0040
S11300400C943F000C943F000C943F000C943F0030
S11300500C943F0011241FBECFE5D8E0DEBFCDBF16
S113006010E0A0E6B0E0EEE0F5E002C005900D92ED
S1130070A837B107D9F70E9441000C9485020C946B
S113008000000E940102D0E08D2F0E94EA008AE164
S11300900E94C000811110C02AEA36EE86E991E080
S11300A02150304080409040D9F70000C1E0CD0F8E
S11300B08D2F0E94EA00DC2F8BE10E94C000811189
S11300C013C0D63089F48AE08D0F0E94EA002FEF26
S11300D033ED80E3215030408040E1F700C0000060
S11300E0DC5F8D2F0E94EA008CE10E94C000811128
S11300F0CBCFCFEFCD0F9AEA26EE36E981E09150CF
S1130100204030408040D9F700008C2F0E94EA0044
S11301109FEF23ED30E3915020403040E1F700C0E1
S11301200000CB30B8F08AEA96EE26E931E081503F
S1130130904020403040D9F70000C5508C2F0E94D9
S1130140EA008FEF93ED20E3815090402040E1F7E7
S113015000C00000C11112C061E085E10E94E70007
S11301603FEF89E698E1315080409040E1F700C0CC
S1130170000060E085E10E94E70086CFC150BBCF5C
S11301801F93CF93DF9300D0CDB7DEB7182F81E054
S113019089831A82BE016F5F7F4F812F0E94B00155
S11301A006C0BE016E5F7F4F812F0E94B0018A811D
S11301B08823B9F38FE39CE90197F1F700C00000AD
S11301C089810F900F90DF91CF911F9108950E9424
S11301D029010895CF93DF93D82F61E087E10E942E
S11301E0290160E086E10E942901CDECDC9FC12D4C
S11301F01124C695C695C695EC2FF0E0E05AFF4F42
S1130200608180E00E94F1018FE39CE90197F1F79E
S113021000C0000060E087E10E94290161E086E1FE
S11302200E942901CC0F8C2F880F880FC80FDC1B6C
S1130230ED2FF0E0E05AFF4F608180E00E94F10171
S11302408FE39CE90197F1F700C00000DF91CF91A3
S11302500895982F9695969596958770662309F438
S11302603FC0613009F07BC0913099F028F09230A2
S1130270E9F0933041F108954BB321E030E0B90146
S113028002C0660F771F8A95E2F7CB01842B8BBBE4
S1130290089548B321E030E0B90102C0660F771F2A
S11302A08A95E2F7CB01842B88BB089545B321E0FE
S11302B030E0B90102C0660F771F8A95E2F7CB01DF
S11302C0842B85BB089542B321E030E0B90102C01C
S11302D0660F771F8A95E2F7CB01842B82BB0895C2
S11302E09130A1F028F09230F9F0933059F108954B
S11302F04BB321E030E0B90102C0660F771F8A9545
S1130300E2F7CB01809584238BBB089548B321E0A9
S113031030E0B90102C0660F771F8A95E2F7CB017E
S11303208095842388BB089545B321E030E0B9016A
S113033002C0660F771F8A95E2F7CB01809584236C
S113034085BB089542B321E030E0B90102C0660FD5
S1130350771F8A95E2F7CB018095842382BB0895A9
S1130360982F9695969596958770913099F028F0E8
S11303709230E9F0933041F1089529B330E0A901B6
S113038002C0559547958A95E2F7CA018170FB0131
S11303908083089526B330E0A90102C0559547959E
S11303A08A95E2F7CA018170FB018083089523B323
S11303B030E0A90102C0559547958A95E2F7CA0134
S11303C08170FB018083089520B330E0A90102C04D
S11303D0559547958A95E2F7CA018170FB018083A0
S11303E00895813041F028F0823039F0833039F0BB
S11303F008956BBB089568BB089565BB089562BBFF
S1130400089590E07EC0E92FF0E0EE0FFF1FE6595B
S1130410FF4F8081382F3695369536958770218128
S11304202223B9F1213009F06BC0313089F028F072
S11304303230C9F0333011F163C04AB321E030E007
S113044002C0220F331F8A95E2F7242B2ABB58C01F
S113045047B321E030E002C0220F331F8A95E2F750
S1130460242B27BB4DC044B321E030E002C0220F4F
S1130470331F8A95E2F7242B24BB42C041B321E009
S113048030E002C0220F331F8A95E2F7242B21BBF0
S113049037C0813091F028F08230D9F0833029F1CF
S11304A02FC04AB321E030E002C0220F331F8A95E7
S11304B0E2F7209524232ABB23C047B321E030E090
S11304C002C0220F331F8A95E2F72095242327BB0D
S11304D017C044B321E030E002C0220F331F8A95D5
S11304E0E2F72095242324BB0BC041B321E030E084
S11304F002C0220F331F8A95E2F72095242321BBE3
S11105009F5F973008F47FCF0895F894FFCFE3
S113050E7E0CB69ECCDAF80EFECE0201010103017A
S10B051E0401050106010000BF
S9030000FC
