:100000000C942A000C943F000C943F000C943F0089
:100010000C943F000C943F000C943F000C943F0064
:100020000C943F000C943F000C943F000C943F0054
:100030000C943F000C943F000C943F000C943F0044
:100040000C943F000C943F000C943F000C943F0034
:100050000C943F0011241FBECFE5D8E0DEBFCDBF1A
:1000600010E0A0E6B0E0E8ECF4E002C005900D92EC
:10007000A839B107D9F70E9441000C9462020C9490
:1000800000000E94DE010E94A50082E990E00E942B
:100090001601FFCF1F93CF93DF931F92CDB7DEB72B
:1000A000182F198260E081E00E94290160E082E05F
:1000B0000E942901BE016F5F7F4F83E00E94C30150
:1000C000612F6695687789818778682B83E00E9425
:1000D000B00161E082E00E9429018FE99FE0019771
:1000E000F1F700C0000060E082E00E942901BE013B
:1000F0006F5F7F4F83E00E94C301812F90E0880FE4
:10010000991F880F991F880F991F698167788877D1
:10011000682B83E00E94B00161E082E00E94290127
:100120008FE99FE00197F1F700C0000060E082E0F6
:100130000E9429018FE19EE40197F1F700C00000C1
:100140000F90DF91CF911F91089583E30E944A00A1
:1001500082E30E944A0088E20E944A008CE00E94EA
:100160004A0081E00E944A0086E00E944A0082E044
:100170000E944A0008951F93CF93DF931F92CDB73B
:10018000DEB7182F198261E081E00E94290160E04A
:1001900082E00E942901BE016F5F7F4F83E00E94D1
:1001A000C301612F6695687789818778682B83E022
:1001B0000E94B00161E082E00E9429018FE99FE086
:1001C0000197F1F700C0000060E082E00E94290181
:1001D000BE016F5F7F4F83E00E94C301812F90E0DB
:1001E000880F991F880F991F880F991F6981677859
:1001F0008877682B83E00E94B00161E082E00E9472
:1002000029018FE99FE00197F1F700C0000060E04D
:1002100082E00E9429018FE19EE40197F1F700C07E
:1002200000000F90DF91CF911F9108950F931F93BE
:10023000CF938C01C0E003C00E94BB00CF5FF801E8
:10024000EC0FF11D80818111F7CFCF911F910F919C
:100250000895982F9695969596958770662309F43C
:100260003FC0613009F07BC0913099F028F09230A6
:10027000E9F0933041F108954BB321E030E0B9014A
:1002800002C0660F771F8A95E2F7CB01842B8BBBE8
:10029000089548B321E030E0B90102C0660F771F2E
:1002A0008A95E2F7CB01842B88BB089545B321E002
:1002B00030E0B90102C0660F771F8A95E2F7CB01E3
:1002C000842B85BB089542B321E030E0B90102C020
:1002D000660F771F8A95E2F7CB01842B82BB0895C6
:1002E0009130A1F028F09230F9F0933059F108954F
:1002F0004BB321E030E0B90102C0660F771F8A9549
:10030000E2F7CB01809584238BBB089548B321E0AD
:1003100030E0B90102C0660F771F8A95E2F7CB0182
:100320008095842388BB089545B321E030E0B9016E
:1003300002C0660F771F8A95E2F7CB018095842370
:1003400085BB089542B321E030E0B90102C0660FD9
:10035000771F8A95E2F7CB018095842382BB0895AD
:10036000869586958695813041F028F0823039F067
:10037000833039F008956BBB089568BB089565BB61
:10038000089562BB0895869586958695813051F0D3
:1003900028F0823059F0833069F008958BB3FB0167
:1003A0008083089588B3FB018083089585B3FB01A2
:1003B0008083089582B3FB018083089590E07EC01E
:1003C000E92FF0E0EE0FFF1FE05AFF4F8081282F4A
:1003D000269526952695877031813323B9F13130E2
:1003E00009F06BC0213089F028F02230C9F02330A9
:1003F00011F163C04AB321E030E002C0220F331F85
:100400008A95E2F7242B2ABB58C047B321E030E09D
:1004100002C0220F331F8A95E2F7242B27BB4DC061
:1004200044B321E030E002C0220F331F8A95E2F787
:10043000242B24BB42C041B321E030E002C0220F94
:10044000331F8A95E2F7242B21BB37C0213091F06E
:1004500028F02230D9F0233029F12FC04AB321E00F
:1004600030E002C0220F331F8A95E2F72095242343
:100470002ABB23C047B321E030E002C0220F331F64
:100480008A95E2F72095242327BB17C044B321E0C7
:1004900030E002C0220F331F8A95E2F72095242313
:1004A00024BB0BC041B321E030E002C0220F331F58
:1004B0008A95E2F72095242321BB9F5F993108F4A8
:0804C0007FCF0895F894FFCFEF
:1004C8000201010103010401050106010000000009
:1004D8000000000000000000000000000000000014
:1004E8000000000000000000000000000000000004
:0804F80000004D696E61000077
:00000001FF
