:100000000C942A000C943F000C943F000C943F0089
:100010000C943F000C943F000C943F000C943F0064
:100020000C943F000C943F000C943F000C943F0054
:100030000C943F000C943F000C943F000C943F0044
:100040000C943F000C943F000C943F000C943F0034
:100050000C943F0011241FBECFE5D8E0DEBFCDBF1A
:1000600010E0A0E6B0E0E8E9F4E002C005900D92EF
:10007000A638B107D9F70E9441000C944A020C94AB
:1000800000000E94C601C0E08C2F0E94AD008AE1F2
:100090000E948100811111C08DECC89F812D112417
:1000A000869586958695880F982F990F990F890FB9
:1000B0002C2F281B253008F4CF5F8BE10E94810094
:1000C000811103C0CA3508F4C65F8CE10E9481002B
:1000D000882329F0D9CF8C2F0E94AD00FCCFC1110D
:1000E000FACF81E00E94A8008FEF93ED20E38150CA
:1000F00090402040E1F700C0000080E00E94A8008E
:10010000C3CF1F93CF93DF9300D0CDB7DEB7182FA7
:1001100081E089831A82BE016F5F7F4F812F0E9429
:10012000750106C0BE016E5F7F4F812F0E94750171
:100130008A818823B9F38FE39CE90197F1F700C026
:10014000000089810F900F90DF91CF911F9108954A
:10015000682F85E10E94EE000895CF93DF93D82F9A
:1001600061E086E10E94EE0060E087E10E94EE001F
:10017000EDECDE9FE12D1124CE2FC695C695C695D8
:100180009C2F990F892F880F880F890FD81BED2F6F
:10019000F0E0E05AFF4F608180E00E94B6018FE3FB
:1001A0009CE90197F1F700C0000060E086E10E9441
:1001B000EE0061E087E10E94EE00EC2FF0E0E05AF3
:1001C000FF4F608180E00E94B6018FE39CE90197B8
:1001D000F1F700C00000DF91CF910895982F969518
:1001E000969596958770662309F43FC0613009F0B3
:1001F0007BC0913099F028F09230E9F0933041F1D2
:1002000008954BB321E030E0B90102C0660F771FBB
:100210008A95E2F7CB01842B8BBB089548B321E08C
:1002200030E0B90102C0660F771F8A95E2F7CB0173
:10023000842B88BB089545B321E030E0B90102C0AA
:10024000660F771F8A95E2F7CB01842B85BB089553
:1002500042B321E030E0B90102C0660F771F8A95F2
:10026000E2F7CB01842B82BB08959130A1F028F0F6
:100270009230F9F0933059F108954BB321E030E01A
:10028000B90102C0660F771F8A95E2F7CB0180950E
:1002900084238BBB089548B321E030E0B90102C04C
:1002A000660F771F8A95E2F7CB018095842388BB80
:1002B000089545B321E030E0B90102C0660F771F11
:1002C0008A95E2F7CB018095842385BB089542B3DC
:1002D00021E030E0B90102C0660F771F8A95E2F78E
:1002E000CB018095842382BB0895982F969596958F
:1002F00096958770913099F028F09230E9F093301C
:1003000041F1089529B330E0A90102C05595479500
:100310008A95E2F7CA018170FB018083089526B3B4
:1003200030E0A90102C0559547958A95E2F7CA01C8
:100330008170FB018083089523B330E0A90102C0DE
:10034000559547958A95E2F7CA018170FB01808334
:10035000089520B330E0A90102C0559547958A95CC
:10036000E2F7CA018170FB0180830895813041F07A
:1003700028F0823039F0833039F008956BBB08954E
:1003800068BB089565BB089562BB089590E07EC088
:10039000E92FF0E0EE0FFF1FE659FF4F8081282F75
:1003A000269526952695877031813323B9F1313012
:1003B00009F06BC0213089F028F02230C9F02330D9
:1003C00011F163C04AB321E030E002C0220F331FB5
:1003D0008A95E2F7242B2ABB58C047B321E030E0CE
:1003E00002C0220F331F8A95E2F7242B27BB4DC092
:1003F00044B321E030E002C0220F331F8A95E2F7B8
:10040000242B24BB42C041B321E030E002C0220FC4
:10041000331F8A95E2F7242B21BB37C0213091F09E
:1004200028F02230D9F0233029F12FC04AB321E03F
:1004300030E002C0220F331F8A95E2F72095242373
:100440002ABB23C047B321E030E002C0220F331F94
:100450008A95E2F72095242327BB17C044B321E0F7
:1004600030E002C0220F331F8A95E2F72095242343
:1004700024BB0BC041B321E030E002C0220F331F88
:100480008A95E2F72095242321BB9F5F9E3008F4D4
:080490007FCF0895F894FFCF1F
:100498007E0CB69ECCDAF80EFECE1A001B001C00AD
:1004A80015011601170101010201030104010501EB
:0604B80006010000000037
:00000001FF
