S00C0000434F54532E73726563DF
S11300000C942A000C943F000C943F000C943F0085
S11300100C943F000C943F000C943F000C943F0060
S11300200C943F000C943F000C943F000C943F0050
S11300300C943F000C943F000C943F000C943F0040
S11300400C943F000C943F000C943F000C943F0030
S11300500C943F0011241FBECFE5D8E0DEBFCDBF16
S113006010E0A0E6B0E0ECEFF2E002C005900D92E3
S1130070A436B107D9F70E9441000C947C010C947A
S113008000000E94F8008AE10E944C008111FBCF1D
S113009081E10E947300F7CF1F93CF93DF9300D0C9
S11300A0CDB7DEB7182F81E089831A82BE016F5F56
S11300B07F4F812F0E94760006C0BE016E5F7F4F86
S11300C0812F0E9476008A818823B9F38FE39CE90B
S11300D00197F1F700C0000089810F900F90DF9124
S11300E0CF911F9108950E94B7000895982F969577
S11300F0969596958770913099F028F09230E9F0B2
S1130100933041F1089529B330E0A90102C0559517
S113011047958A95E2F7CA018170FB0180830895AF
S113012026B330E0A90102C0559547958A95E2F7B8
S1130130CA018170FB018083089523B330E0A901D3
S113014002C0559547958A95E2F7CA018170FB0173
S11301508083089520B330E0A90102C055954795E6
S11301608A95E2F7CA018170FB0180830895982F74
S11301709695969596958770913099F028F09230DF
S1130180E9F0933041F108954BB321E030E0B90137
S113019002C0660F771F8A95E2F7CB0184278BBBD9
S11301A0089548B321E030E0B90102C0660F771F1B
S11301B08A95E2F7CB01842788BB089545B321E0F3
S11301C030E0B90102C0660F771F8A95E2F7CB01D0
S11301D0842785BB089542B321E030E0B90102C011
S11301E0660F771F8A95E2F7CB01842782BB0895B7
S11301F080E07EC0E82FF0E0EE0FFF1FE05AFF4FD3
S11302009081292F26952695269597703181332341
S1130210B9F1313009F06BC0213089F028F0223077
S1130220C9F0233011F163C04AB321E030E002C0C9
S1130230220F331F9A95E2F7242B2ABB58C047B3E9
S113024021E030E002C0220F331F9A95E2F7242BFD
S113025027BB4DC044B321E030E002C0220F331F5E
S11302609A95E2F7242B24BB42C041B321E030E04D
S113027002C0220F331F9A95E2F7242B21BB37C00B
S1130280213091F028F02230D9F0233029F12FC009
S11302904AB321E030E002C0220F331F9A95E2F7FF
S11302A0209524232ABB23C047B321E030E002C0B9
S11302B0220F331F9A95E2F72095242327BB17C0FA
S11302C044B321E030E002C0220F331F9A95E2F7D5
S11302D02095242324BB0BC041B321E030E002C0AD
S11302E0220F331F9A95E2F72095242321BB8F5FB9
S10F02F0823008F47FCF0895F894FFCF0B
S10702FC11011A00CE
S9030000FC
