S00C0000434F54532E73726563DF
S11300000C942A000C943F000C943F000C943F0085
S11300100C943F000C943F000C943F000C943F0060
S11300200C943F000C943F000C943F000C943F0050
S11300300C943F000C943F000C943F000C943F0040
S11300400C943F000C943F000C943F000C943F0030
S11300500C943F0011241FBECFE5D8E0DEBFCDBF16
S113006010E0A0E6B0E0E0E9F5E002C005900D92F2
S1130070A838B107D9F70E9441000C94C6020C9429
S113008000000E944202D0E010E004C0D0E002C0B0
S1130090D0E010E08AE10E949200C82F8BE10E9418
S11300A09200082F8CE10E949200F82E8DE10E94AC
S11300B09200C11103C0D93049F3DF5F011106C0BA
S11300C0163019F4DF5F10E0E5CF1F5FF11005C0B3
S11300D011110FC0DD23F1F20CC08823C9F29D2F4A
S11300E0990F892F880F880F890F810F0E94C200F2
S11300F0D1CF612F8D2F0E9403018DE10E949200C8
S1130100C82F0E94BE002FEF83EC99E0215080405D
S11301109040E1F700C00000C111EFCF80E00E94E1
S1130120B900B8CF1F93CF93DF9300D0CDB7DEB71C
S1130130182F81E089831A82BE016F5F7F4F812F60
S11301400E94AD0106C0BE016E5F7F4F812F0E94E9
S1130150AD018A818823B9F38FE39CE90197F1F714
S113016000C0000089810F900F90DF91CF911F9103
S11301700895682F85E10E942601089585E10E9473
S1130180EE010895CF93DF93D82F61E086E10E94BA
S1130190260160E087E10E942601EDECDE9FE12D5F
S11301A01124CE2FC695C695C6959C2F990F892FDD
S11301B0880F880F890FD81BED2FF0E0E258FF4F0E
S11301C0608180E00E942F028FE99FE00197F1F7A0
S11301D000C0000060E086E10E94260161E087E142
S11301E00E942601EC2FF0E0E258FF4F608180E08E
S11301F00E942F028FE99FE00197F1F700C00000F1
S1130200DF91CF9108950F931F93CF93DF93082F1E
S1130210162F10C0902F990F892F880F880F890FE0
S1130220810F0E94C200219702C0C8E8D3E1DD23F8
S11302308CF711501116CCF3002319F0015016E07D
S1130240F9CFDF91CF911F910F910895982F969533
S1130250969596958770662309F43FC0613009F03E
S11302607BC0913099F028F09230E9F0933041F15D
S113027008954BB321E030E0B90102C0660F771F47
S11302808A95E2F7CB01842B8BBB089548B321E018
S113029030E0B90102C0660F771F8A95E2F7CB01FF
S11302A0842B88BB089545B321E030E0B90102C036
S11302B0660F771F8A95E2F7CB01842B85BB0895DF
S11302C042B321E030E0B90102C0660F771F8A957E
S11302D0E2F7CB01842B82BB08959130A1F028F082
S11302E09230F9F0933059F108954BB321E030E0A6
S11302F0B90102C0660F771F8A95E2F7CB0180959A
S113030084238BBB089548B321E030E0B90102C0D7
S1130310660F771F8A95E2F7CB018095842388BB0B
S1130320089545B321E030E0B90102C0660F771F9C
S11303308A95E2F7CB018095842385BB089542B367
S113034021E030E0B90102C0660F771F8A95E2F719
S1130350CB018095842382BB0895982F969596951A
S113036096958770913099F028F09230E9F09330A7
S113037041F1089529B330E0A90102C0559547958C
S11303808A95E2F7CA018170FB018083089526B340
S113039030E0A90102C0559547958A95E2F7CA0154
S11303A08170FB018083089523B330E0A90102C06A
S11303B0559547958A95E2F7CA018170FB018083C0
S11303C0089520B330E0A90102C0559547958A9558
S11303D0E2F7CA018170FB0180830895982F9695F6
S11303E0969596958770913099F028F09230E9F0BF
S11303F0933041F108954BB321E030E0B90102C0DC
S1130400660F771F8A95E2F7CB0184278BBB08958B
S113041048B321E030E0B90102C0660F771F8A9526
S1130420E2F7CB01842788BB089545B321E030E08F
S1130430B90102C0660F771F8A95E2F7CB018427C2
S113044085BB089542B321E030E0B90102C0660FD4
S1130450771F8A95E2F7CB01842782BB089586959E
S113046086958695813041F028F0823039F08330CA
S113047039F008956BBB089568BB089565BB089572
S113048062BB089590E07EC0E92FF0E0EE0FFF1FFD
S1130490E05AFF4F8081282F269526952695877050
S11304A031813323B9F1313009F06BC0213089F047
S11304B028F02230C9F0233011F163C04AB321E09F
S11304C030E002C0220F331F8A95E2F7242B2ABBA7
S11304D058C047B321E030E002C0220F331F8A9591
S11304E0E2F7242B27BB4DC044B321E030E002C027
S11304F0220F331F8A95E2F7242B24BB42C041B359
S113050021E030E002C0220F331F8A95E2F7242B4A
S113051021BB37C0213091F028F02230D9F02330AC
S113052029F12FC04AB321E030E002C0220F331F6B
S11305308A95E2F7209524232ABB23C047B321E000
S113054030E002C0220F331F8A95E2F7209524235E
S113055027BB17C044B321E030E002C0220F331F91
S11305608A95E2F72095242324BB0BC041B321E0F4
S113057030E002C0220F331F8A95E2F7209524232E
S113058021BB9F5F9F3008F47FCF0895F894FFCF7D
S11305901601170100010101020103010401050113
S11305A00601070115011A001B001C001D007E0C2A
S10B05B0B69ECCDAFA0EFECE71
S9030000FC
