S00C0000434F54532E73726563DF
S11300000C942A000C943F000C943F000C943F0085
S11300100C943F000C943F000C943F000C943F0060
S11300200C943F000C943F000C943F000C943F0050
S11300300C943F000C943F000C943F000C943F0040
S11300400C943F000C943F000C943F000C943F0030
S11300500C943F0011241FBECFE5D8E0DEBFCDBF16
S113006010E0A0E6B0E0ECE8F5E002C005900D92E7
S1130070A838B107D9F70E9441000C94C4020C942B
S113008000000E94400200E010E004C000E002C052
S113009000E010E08AE10E94B300D82F8BE10E94B7
S11300A0B300C82F8CE10E94B300F82E8DE10E94AA
S11300B0B300D11103C0093049F30F5FC11106C069
S11300C0163019F40F5F10E0E5CF1F5FF11005C083
S11300D011110FC00023F1F20CC08823C9F2902F34
S11300E0990F892F880F880F890F810F0E94E300D1
S11300F0D1CF002389F0C0E3D5E7902F990F892F42
S1130100880F880F890F810F0E94E300209711F058
S11301102197F3CF0150EDCF110F812F880F880F56
S1130120180F112359F0C4EFD1E0812F0E94E3008E
S1130130209711F02197F9CF1150F3CF8DE10E9450
S1130140B300C82F0E94DF002FEF83EC99E0215009
S113015080409040E1F700C00000C111EFCF80E083
S11301600E94DA0097CF1F93CF93DF9300D0CDB7CF
S1130170DEB7182F81E089831A82BE016F5F7F4F3B
S1130180812F0E94AB0106C0BE016E5F7F4F812F9D
S11301900E94AB018A818823B9F38FE39CE901971C
S11301A0F1F700C0000089810F900F90DF91CF918B
S11301B01F910895682F85E10E942401089585E127
S11301C00E94EC010895CF93DF93D82F61E086E17C
S11301D00E94240160E087E10E942401EDECDE9F8F
S11301E0E12D1124CE2FC695C695C6959C2F990F47
S11301F0892F880F880F890FD81BED2FF0E0E25864
S1130200FF4F608180E00E942D028FE99FE00197FB
S1130210F1F700C0000060E086E10E94240161E083
S113022087E10E942401EC2FF0E0E258FF4F608147
S113023080E00E942D028FE99FE00197F1F700C052
S11302400000DF91CF910895982F969596959695F5
S11302508770662309F43FC0613009F07BC0913098
S113026099F028F09230E9F0933041F108954BB3BE
S113027021E030E0B90102C0660F771F8A95E2F7EA
S1130280CB01842B8BBB089548B321E030E0B90146
S113029002C0660F771F8A95E2F7CB01842B88BBD7
S11302A0089545B321E030E0B90102C0660F771F1D
S11302B08A95E2F7CB01842B85BB089542B321E0F4
S11302C030E0B90102C0660F771F8A95E2F7CB01CF
S11302D0842B82BB08959130A1F028F09230F9F07C
S11302E0933059F108954BB321E030E0B90102C0D5
S11302F0660F771F8A95E2F7CB01809584238BBB29
S1130300089548B321E030E0B90102C0660F771FB9
S11303108A95E2F7CB018095842388BB089545B381
S113032021E030E0B90102C0660F771F8A95E2F739
S1130330CB018095842385BB089542B321E030E04E
S1130340B90102C0660F771F8A95E2F7CB01809549
S1130350842382BB0895982F9695969596958770D9
S1130360913099F028F09230E9F0933041F10895FA
S113037029B330E0A90102C0559547958A95E2F763
S1130380CA018170FB018083089526B330E0A9017E
S113039002C0559547958A95E2F7CA018170FB0121
S11303A08083089523B330E0A90102C05595479591
S11303B08A95E2F7CA018170FB018083089520B316
S11303C030E0A90102C0559547958A95E2F7CA0124
S11303D08170FB0180830895982F96959695969544
S11303E08770913099F028F09230E9F0933041F120
S11303F008954BB321E030E0B90102C0660F771FC6
S11304008A95E2F7CB0184278BBB089548B321E09A
S113041030E0B90102C0660F771F8A95E2F7CB017D
S1130420842788BB089545B321E030E0B90102C0B8
S1130430660F771F8A95E2F7CB01842785BB089561
S113044042B321E030E0B90102C0660F771F8A95FC
S1130450E2F7CB01842782BB08958695869586951D
S1130460813041F028F0823039F0833039F008953A
S11304706BBB089568BB089565BB089562BB08957E
S113048090E07EC0E92FF0E0EE0FFF1FE05AFF4F2F
S11304908081282F269526952695877031813323D0
S11304A0B9F1313009F06BC0213089F028F02230E5
S11304B0C9F0233011F163C04AB321E030E002C037
S11304C0220F331F8A95E2F7242B2ABB58C047B367
S11304D021E030E002C0220F331F8A95E2F7242B7B
S11304E027BB4DC044B321E030E002C0220F331FCC
S11304F08A95E2F7242B24BB42C041B321E030E0CB
S113050002C0220F331F8A95E2F7242B21BB37C088
S1130510213091F028F02230D9F0233029F12FC076
S11305204AB321E030E002C0220F331F8A95E2F77C
S1130530209524232ABB23C047B321E030E002C026
S1130540220F331F8A95E2F72095242327BB17C077
S113055044B321E030E002C0220F331F8A95E2F752
S11305602095242324BB0BC041B321E030E002C01A
S1130570220F331F8A95E2F72095242321BB9F5F26
S10F05809F3008F47FCF0895F894FFCF5B
S113058C1601170100010101020103010401050117
S113059C0601070115011A001B001C001D007E0C2E
S10B05ACB69ECCDAFA0EFECE75
S9030000FC
