:100000000C942A000C9447000C9447000C94470071
:100010000C9447000C9447000C9447000C94470044
:100020000C9447000C9447000C9447000C94470034
:100030000C9447000C9447000C9447000C94470024
:100040000C9447000C9447000C9447000C94470014
:100050000C94470011241FBECFE5D8E0DEBFCDBF12
:1000600010E0A0E6B0E0EAEDF2E002C005900D92EB
:10007000A636B107D9F720E0A6E6B0E001C01D9290
:10008000A836B207E1F70E9449000C946B010C946A
:1000900000000E94E7008091660090E00E94A500A9
:1000A0008AE10E947E0080936100811108C08091E6
:1000B00066008F5F8093660090E00E94A5008BE150
:1000C0000E947E00809360008111E5CF80916600E0
:1000D000809367008091670090E00E94A5002FEF59
:1000E00083ED90E3215080409040E1F700C0000094
:1000F00080916700815080936700ECCF1F93CF936E
:10010000DF9300D0CDB7DEB7182F81E089831A8244
:10011000BE016F5F7F4F812F0E94A60006C0BE0107
:100120006E5F7F4F812F0E94A6008A818823B9F3DA
:100130008FE39CE90197F1F700C0000089810F90DF
:100140000F90DF91CF911F9108950895982F969564
:10015000969596958770913099F028F09230E9F055
:10016000933041F1089529B330E0A90102C05595BB
:1001700047958A95E2F7CA018170FB018083089553
:1001800026B330E0A90102C0559547958A95E2F75C
:10019000CA018170FB018083089523B330E0A90177
:1001A00002C0559547958A95E2F7CA018170FB0117
:1001B0008083089520B330E0A90102C0559547958A
:1001C0008A95E2F7CA018170FB018083089580E07F
:1001D0007EC0E82FF0E0EE0FFF1FEE59FF4F908139
:1001E000292F269526952695977031813323B9F1CD
:1001F000313009F06BC0213089F028F02230C9F08D
:10020000233011F163C04AB321E030E002C0220F75
:10021000331F9A95E2F7242B2ABB58C047B321E03D
:1002200030E002C0220F331F9A95E2F7242B27BB40
:100230004DC044B321E030E002C0220F331F9A9535
:10024000E2F7242B24BB42C041B321E030E002C0DE
:10025000220F331F9A95E2F7242B21BB37C02130A0
:1002600091F028F02230D9F0233029F12FC04AB381
:1002700021E030E002C0220F331F9A95E2F720956B
:1002800024232ABB23C047B321E030E002C0220F61
:10029000331F9A95E2F72095242327BB17C044B358
:1002A00021E030E002C0220F331F9A95E2F720953B
:1002B000242324BB0BC041B321E030E002C0220F55
:1002C000331F9A95E2F72095242321BB8F5F82305C
:0A02D00008F47FCF0895F894FFCFE3
:0602DA00010111011A00F0
:00000001FF
