S01000004443204D4F544F522E73726563DC
S11300000C942A000C940C010C9447000C944700A7
S11300100C9447000C9447000C9447000C94B301D3
S11300200C9447000C9447000C9447000C94720104
S11300300C9447000C9447000C9447000C94470020
S11300400C9435010C9447000C9447000C94470021
S11300500C94470011241FBECFE5D8E0DEBFCDBF0E
S113006010E0A0E6B0E0E6EBF5E002C005900D92EA
S1130070A239B107D9F720E0A2E9B0E001C01D928E
S1130080A83CB207E1F70E9449000C94D9020C94F1
S113009000000E94E3010E945F008CE30E9479004B
S11300A080E00E9462002FEF83ED90E321508040B6
S11300B09040E1F700C000000E947C00FFCF0E9446
S11300C067020895882319F0813051F0089561E0A2
S11300D080E10E94850060E081E10E94850008952E
S11300E060E080E10E94850061E081E10E9485007A
S11300F008950E947402089561E080E10E948500E1
S113010061E081E10E9485000895982F9695969567
S113011096958770662309F43FC0613009F07BC06F
S1130120913099F028F09230E9F0933041F108953C
S11301304BB321E030E0B90102C0660F771F8A9506
S1130140E2F7CB01842B8BBB089548B321E030E068
S1130150B90102C0660F771F8A95E2F7CB01842BA1
S113016088BB089545B321E030E0B90102C0660FB1
S1130170771F8A95E2F7CB01842B85BB089542B3A0
S113018021E030E0B90102C0660F771F8A95E2F7DB
S1130190CB01842B82BB08959130A1F028F09230DA
S11301A0F9F0933059F108954BB321E030E0B901EF
S11301B002C0660F771F8A95E2F7CB0180958423EE
S11301C08BBB089548B321E030E0B90102C0660F4B
S11301D0771F8A95E2F7CB018095842388BB089525
S11301E045B321E030E0B90102C0660F771F8A955C
S11301F0E2F7CB018095842385BB089542B321E0C7
S113020030E0B90102C0660F771F8A95E2F7CB018F
S11302108095842382BB08951F920F920FB60F928C
S113022011242F933F934F935F936F937F938F93F7
S11302309F93AF93BF93EF93FF93E0919800F09156
S11302409900309709F00995FF91EF91BF91AF9113
S11302509F918F917F916F915F914F913F912F91DA
S11302600F900FBE0F901F9018951F920F920FB60C
S11302700F9211242F933F934F935F936F937F9328
S11302808F939F93AF93BF93EF93FF9324B135B1B3
S1130290A8E8B3E10E94B6022FEF33E040E050E05B
S11302A00E94940220939200309393004093940010
S11302B050939500E091B600F091B700309709F0A3
S11302C00995FF91EF91BF91AF919F918F917F918C
S11302D06F915F914F913F912F910F900FBE0F90AF
S11302E01F9018951F920F920FB60F9211242F93FF
S11302F03F934F935F936F937F938F939F93AF93AA
S1130300BF93EF93FF93809197008F5F8093970043
S113031090E0A0E0B0E04091C4005091C50060912D
S1130320C6007091C70084179507A607B70751F454
S1130330E091AC00F091AD00099510929700809186
S1130340C00082BFFF91EF91BF91AF919F918F91B8
S11303507F916F915F914F913F912F910F900FBEBD
S11303600F901F9018951F920F920FB60F921124A1
S11303702F933F934F935F936F937F938F939F93A9
S1130380AF93BF93EF93FF93809196008F5F809319
S11303909600813039F4E091A400F091A50009950C
S11303A010929600FF91EF91BF91AF919F918F9121
S11303B07F916F915F914F913F912F910F900FBE5D
S11303C00F901F90189590E07EC0E92FF0E0EE0F9B
S11303D0FF1FE05AFF4F8081282F269526952695EA
S11303E0877031813323B9F1313009F06BC021308A
S11303F089F028F02230C9F0233011F163C04AB3E8
S113040021E030E002C0220F331F8A95E2F7242B4B
S11304102ABB58C047B321E030E002C0220F331F8B
S11304208A95E2F7242B27BB4DC044B321E030E08A
S113043002C0220F331F8A95E2F7242B24BB42C04B
S113044041B321E030E002C0220F331F8A95E2F766
S1130450242B21BB37C0213091F028F02230D9F071
S1130460233029F12FC04AB321E030E002C0220F2B
S1130470331F8A95E2F7209524232ABB23C047B370
S113048021E030E002C0220F331F8A95E2F7209565
S1130490242327BB17C044B321E030E002C0220F5D
S11304A0331F8A95E2F72095242324BB0BC041B364
S11304B021E030E002C0220F331F8A95E2F7209535
S11304C0242321BB9F5F993108F47FCF089583B71C
S11304D0806483BF83B7886083BF83B7806283BF30
S11304E083B78F7E83BF0895982F80E064E670E021
S11304F00E94800261506CBF83B7826083BF0895FD
S113050097FB072E16F4009407D077FD09D00E94BC
S1130510C50207FC05D03EF4909581959F4F089540
S1130520709561957F4F0895A1E21A2EAA1BBB1BFB
S1130530FD010DC0AA1FBB1FEE1FFF1FA217B307AB
S1130540E407F50720F0A21BB30BE40BF50B661FC1
S1130550771F881F991F1A9469F760957095809585
S113056090959B01AC01BD01CF010895A29FB001FC
S1130570B39FC001A39F700D811D1124911DB29FD3
S1130580700D811D1124911D0895AA1BBB1B51E1FF
S113059007C0AA1FBB1FA617B70710F0A61BB70BEF
S11305A0881F991F5A95A9F780959095BC01CD0194
S10905B00895F894FFCF4A
S11305B611010201010103010401050106011A00EA
S11305C61B001C000C010D010E010F010B01100193
S11305D611011D01000000000000000000000000E1
S10505E600000F
S9030000FC
