S01E0000536D617274204C6F636B20446F6F722053797374656D2E73726563FD
S11300000C945E000C9434040C947B000C947B00E0
S11300100C947B000C947B000C9430050C9400052C
S11300200C947B000C94DB040C947B000C949A04D9
S11300300C947B000C947B000C947B000C947B0050
S11300400C945D040C947B000C947B000C947B005A
S11300500C947B005802100218022002280230027D
S1130060380240024802500279027902790277028A
S113007079027902790279027902790279027902A4
S11300807902790279027902790279027902790294
S11300907902790279027902790279027902790284
S11300A07902790279027902790279027902790274
S11300B079027902790279027902600211241FBE61
S11300C0CFE5D8E0DEBFCDBF10E0A0E6B0E0E6EBC0
S11300D0FDE002C005900D92A43DB107D9F721E0DF
S11300E0A4EDB0E001C01D92A332B207E1F70E9473
S11300F07D000C94D9060C9400000E94E0050E9437
S11301004E010E9494000E94EE0161E080E10E9491
S11301103E0386EA90E00E94BF010E94A500882366
S1130120E1F30E94FE01F9CF61E08CE00E943E03FE
S113013061E08DE00E943E0361E08EE00E943E0398
S113014061E08FE00E943E030895FF920F931F9396
S1130150CF93DF931F92CDB7DEB71982F12C0CE059
S113016038C060E0802F0E943E031AE12BC0BE011C
S11301706F5F7F4F812F0E94C5038981811121C048
S1130180802F90E00C97212F30E02A513109880FFD
S1130190991F880F991F805A9F4FFC01E20FF31F8C
S11301A0F08006C0BE016F5F7F4F812F0E94C503A0
S11301B089818823B9F38FE39CE90197F1F700C0A3
S11301C000001F5F1D3198F261E0802F0E943E0302
S11301D00F5F003130F28F2D0F90DF91CF911F917F
S11301E00F91FF9008951F93CF93DF931F92CDB784
S11301F0DEB7182F198260E081E00E943E0360E0C0
S113020082E00E943E03BE016F5F7F4F83E00E9445
S11302101904612F6695687789818778682B83E054
S11302200E94060461E082E00E943E038FE99FE0A1
S11302300197F1F700C0000060E082E00E943E03F5
S1130240BE016F5F7F4F83E00E941904812F90E00D
S1130250880F991F880F991F880F991F69816778E4
S11302608877682B83E00E94060461E082E00E94A4
S11302703E038FE99FE00197F1F700C0000060E0C2
S113028082E00E943E038FE19EE40197F1F700C0F3
S113029000000F90DF91CF911F91089583E30E9496
S11302A0F30082E30E94F30088E20E94F3008CE0F2
S11302B00E94F30081E00E94F30086E00E94F300B4
S11302C082E00E94F30008951F93CF93DF931F925F
S11302D0CDB7DEB7182F198261E081E00E943E039A
S11302E060E082E00E943E03BE016F5F7F4F83E0C7
S11302F00E941904612F6695687789818778682B35
S113030083E00E94060461E082E00E943E038FE9DC
S11303109FE00197F1F700C0000060E082E00E94D6
S11303203E03BE016F5F7F4F83E00E941904812F5B
S113033090E0880F991F880F991F880F991F698172
S113034067788877682B83E00E94060461E082E086
S11303500E943E038FE99FE00197F1F700C000007F
S113036060E082E00E943E038FE19EE40197F1F792
S113037000C000000F90DF91CF911F9108950F935B
S11303801F93CF938C01C0E003C00E946401CF5F30
S1130390F801EC0FF11D80818111F7CFCF911F91EE
S11303A00F91089581E00E94F3000895CF93DF93A5
S11303B000D0CDB7DEB790E8998390EC9A83E1E062
S11303C0F0E0EC0FFD1FE80FF11D8081860F0E9405
S11303D0F3000F900F90DF91CF9108950E9464066F
S11303E0089599E8899F812D11248695869586958F
S11303F062E370E08B5F0E946E060895CF93C82F6E
S113040061E080E10E943E038C2F90E0FC01F097B4
S1130410E433F10508F06DC0E65DFF4F0C94B906B6
S113042080ED8C0F8093D8008AE20E94640161C041
S113043080ED8C0F8093D8008AE20E94640159C039
S113044080ED8C0F8093D8008AE20E94640151C031
S113045080ED8C0F8093D8008AE20E94640149C029
S113046080ED8C0F8093D8008AE20E94640141C021
S113047080ED8C0F8093D8008AE20E94640139C019
S113048080ED8C0F8093D8008AE20E94640131C011
S113049080ED8C0F8093D8008AE20E94640129C009
S11304A080ED8C0F8093D8008AE20E94640121C001
S11304B080ED8C0F8093D8008AE20E94640119C0F9
S11304C01092D8001092D7001092D6001092D50046
S11304D060E081E10E943E0360E085E10E943E030A
S11304E00E94D20186EA90E00E94BF0102C00E94ED
S11304F0D20180ED8C0F8A3060F48091D700880F90
S1130500982F990F990F890F9091D800890F809394
S1130510D700CD3309F0B0C01092D40018C0E82F32
S1130520F0E0E059FF4F20819091D700291305C0D6
S11305303091D6003F5F3093D600291729F090916F
S1130540D5009F5F9093D5008F5F8093D4008091F6
S1130550D400843020F38091D600882309F449C064
S113056061E080E00E94D6018CEA90E00E94BF0125
S113057061E081E10E943E0360E080E10E943E036D
S113058083E70E94F1011092D7001092D8001092D4
S1130590D6001092D5002FEF83E294EF21508040D3
S11305A09040E1F700C0000080E00E94F10161E0AA
S11305B080E10E943E0360E081E10E943E030E94CC
S11305C0D20162E080E00E94D6018AEB90E00E94B2
S11305D0BF012FEF87EA91E6215080409040E1F778
S11305E000C000000E94D20186EA90E00E94BF0190
S11305F020C062E080E00E94D6018AEB90E00E9475
S1130600BF011092D7001092D8001092D60080E05B
S11306100E94F1012FEF87EA91E62150804090403B
S1130620E1F700C000000E94D20186EA90E00E9437
S1130630BF018091D5008431F9F40E94D20161E0B8
S113064085E10E943E0361E080E00E94D60186ECD1
S113065090E00E94BF0162E081E00E94D6018AEB33
S113066090E00E94BF011092D7001092D80010921F
S1130670D60080E00E94F101CF910895982F9695BD
S1130680969596958770662309F43FC0613009F00A
S11306907BC0913099F028F09230E9F0933041F129
S11306A008954BB321E030E0B90102C0660F771F13
S11306B08A95E2F7CB01842B8BBB089548B321E0E4
S11306C030E0B90102C0660F771F8A95E2F7CB01CB
S11306D0842B88BB089545B321E030E0B90102C002
S11306E0660F771F8A95E2F7CB01842B85BB0895AB
S11306F042B321E030E0B90102C0660F771F8A954A
S1130700E2F7CB01842B82BB08959130A1F028F04D
S11307109230F9F0933059F108954BB321E030E071
S1130720B90102C0660F771F8A95E2F7CB01809565
S113073084238BBB089548B321E030E0B90102C0A3
S1130740660F771F8A95E2F7CB018095842388BBD7
S1130750089545B321E030E0B90102C0660F771F68
S11307608A95E2F7CB018095842385BB089542B333
S113077021E030E0B90102C0660F771F8A95E2F7E5
S1130780CB018095842382BB0895982F96959695E6
S113079096958770913099F028F09230E9F0933073
S11307A041F1089529B330E0A90102C05595479558
S11307B08A95E2F7CA018170FB018083089526B30C
S11307C030E0A90102C0559547958A95E2F7CA0120
S11307D08170FB018083089523B330E0A90102C036
S11307E0559547958A95E2F7CA018170FB0180838C
S11307F0089520B330E0A90102C0559547958A9524
S1130800E2F7CA018170FB0180830895869586957D
S11308108695813041F028F0823039F0833039F008
S113082008956BBB089568BB089565BB089562BBCA
S11308300895869586958695813051F028F082300A
S113084059F0833069F008958BB3FB0180830895D8
S113085088B3FB018083089585B3FB0180830895E9
S113086082B3FB01808308951F920F920FB60F92FB
S113087011242F933F934F935F936F937F938F93A1
S11308809F93AF93BF93EF93FF93E091F300F091A5
S1130890F400309709F00995FF91EF91BF91AF9162
S11308A09F918F917F916F915F914F913F912F9184
S11308B00F900FBE0F901F9018951F920F920FB6B6
S11308C00F9211242F933F934F935F936F937F93D2
S11308D08F939F93AF93BF93EF93FF9324B135B15D
S11308E0A8E8B3E10E94BF062FEF33E040E050E0F8
S11308F00E9497062093D9003093DA004093DB00DE
S11309005093DC00E0911101F0911201309709F04D
S11309100995FF91EF91BF91AF919F918F917F9135
S11309206F915F914F913F912F910F900FBE0F9058
S11309301F9018951F920F920FB60F9211242F93A8
S11309403F934F935F936F937F938F939F93AF9353
S1130950BF93EF93FF938091EE008F5F8093EE003F
S113096090E0A0E0B0E040911F015091200160911F
S113097021017091220184179507A607B70751F446
S1130980E0910701F091080109951092EE00809121
S11309901B0182BFFF91EF91BF91AF919F918F9106
S11309A07F916F915F914F913F912F910F900FBE67
S11309B00F901F9018951F920F920FB60F9211244B
S11309C08F939F93AF93BF938091EF009091F0002A
S11309D0A091F100B091F2000196A11DB11D809388
S11309E0EF009093F000A093F100B093F200BF9158
S11309F0AF919F918F910F900FBE0F901F901895FC
S1130A001F920F920FB60F9211242F933F934F937F
S1130A105F936F937F938F939F93AF93BF93EF9362
S1130A20FF938091ED008F5F8093ED00813039F466
S1130A30E091FF00F091000109951092ED00FF9103
S1130A40EF91BF91AF919F918F917F916F915F9142
S1130A504F913F912F910F900FBE0F901F901895BB
S1130A601F920F920FB60F9211242F933F934F931F
S1130A705F936F937F938F939F93AF93BF93EF9302
S1130A80FF938091DD009091DE00A091DF00B09192
S1130A90E0000196A11DB11D8093DD009093DE005E
S1130AA0A093DF00B093E0008091DD009091DE0020
S1130AB0A091DF00B091E0000197A105B105C1F458
S1130AC086B597B5A0E0B0E08093E9009093EA0082
S1130AD0A093EB00B093EC001092EF001092F000A2
S1130AE01092F1001092F2008EB58F7B8EBD57C02C
S1130AF08091DD009091DE00A091DF00B091E000D4
S1130B000297A105B10501F5E6B5F7B52091EF000F
S1130B103091F0004091F1005091F200AFEFBFEF3F
S1130B200E94CE06DC01CB018E0F9F1FA11DB11DBB
S1130B308093E5009093E600A093E700B093E8006B
S1130B408EB580648EBD2BC08091DD009091DE0057
S1130B50A091DF00B091E0000397A105B105F9F47D
S1130B60E6B5F7B52091EF003091F0004091F10027
S1130B705091F200AFEFBFEF0E94CE06DC01CB0133
S1130B808E0F9F1FA11DB11D8093E1009093E20081
S1130B90A093E300B093E40089B78F7D89BFFF91F0
S1130BA0EF91BF91AF919F918F917F916F915F91E1
S1130BB04F913F912F910F900FBE0F901F9018955A
S1130BC090E07EC0E92FF0E0EE0FFF1FEC58FF4FDE
S1130BD08081282F26952695269587703181332389
S1130BE0B9F1313009F06BC0213089F028F022309E
S1130BF0C9F0233011F163C04AB321E030E002C0F0
S1130C00220F331F8A95E2F7242B2ABB58C047B31F
S1130C1021E030E002C0220F331F8A95E2F7242B33
S1130C2027BB4DC044B321E030E002C0220F331F84
S1130C308A95E2F7242B24BB42C041B321E030E083
S1130C4002C0220F331F8A95E2F7242B21BB37C041
S1130C50213091F028F02230D9F0233029F12FC02F
S1130C604AB321E030E002C0220F331F8A95E2F735
S1130C70209524232ABB23C047B321E030E002C0DF
S1130C80220F331F8A95E2F72095242327BB17C030
S1130C9044B321E030E002C0220F331F8A95E2F70B
S1130CA02095242324BB0BC041B321E030E002C0D3
S1130CB0220F331F8A95E2F72095242321BB9F5FDF
S1130CC0993108F47FCF08958FB582608FBD8EB5BA
S1130CD088618EBD8FB580688FBD0895CF93C82F6E
S1130CE020E030E0362F40E050E060E074E284EF32
S1130CF090E00E94970637BD26BD86B597B501964C
S1130D00C89F9001C99F300D1124369527953695BB
S1130D102795ABE7B4E10E94BF06969587950197A6
S1130D209BBD8ABD8EB584608EBDCF910895A1E22E
S1130D301A2EAA1BBB1BFD010DC0AA1FBB1FEE1F51
S1130D40FF1FA217B307E407F50720F0A21BB30B9C
S1130D50E40BF50B661F771F881F991F1A9469F718
S1130D6060957095809590959B01AC01BD01CF0174
S1130D700895EE0FFF1F0590F491E02D0994A29FB2
S1130D80B001B39FC001A39F700D811D1124911D5B
S1130D90B29F700D811D1124911D08950E94BF06FC
S1130DA0A59F900DB49F900DA49F800D911D1124BB
S1090DB00895F894FFCF42
S1130DB631323300343536003738390063303D007C
S1130DC6CDCECFD11101100115010201010103019C
S1130DD60401050106011A001B001C000C010D018B
S1130DE60E010F010B011D010000000000000000B0
S1130DF6000000000000436F64653A00446F6F72A0
S1130E0620556E6C6F636B656400446F6F72204C83
S1130E166F636B65640021212121414C45525421A5
S1070E262121210061
S9030000FC
