:100000000C942A000C943F000C943F000C943F0089
:100010000C943F000C943F000C943F000C943F0064
:100020000C943F000C943F000C943F000C943F0054
:100030000C943F000C943F000C943F000C943F0044
:100040000C943F000C943F000C943F000C943F0034
:100050000C943F0011241FBECFE5D8E0DEBFCDBF1A
:1000600010E0A0E6B0E0ECE6F5E002C005900D92ED
:10007000A838B107D9F70E9441000C94B4020C943F
:1000800000000E943002D0E0C0E08AE10E94E90056
:10009000811104C0CF5FCA3009F4C0E08C2F0E94E8
:1000A00083008BE10E94E900811104C0DF5FDA3038
:1000B00009F4D0E08D2F0E9469008CE10E94E900D4
:1000C0008111E3CF6D2F8C2F0E949D000E941001A3
:1000D000DACFCF93C82F61E086E10E94140160E07F
:1000E00087E10E941401EC2FF0E0E05AFF4F60819D
:1000F00081E00E941D028FE99FE00197F1F700C0A7
:100100000000CF910895CF93C82F60E086E10E9450
:10011000140161E087E10E941401EC2FF0E0E05A45
:10012000FF4F608181E00E941D028FE99FE00197EF
:10013000F1F700C00000CF9108950F931F93CF9364
:10014000DF93082F3FC060E086E10E94140161E068
:1001500087E10E941401E02F002E000CFF0BE05AF3
:10016000FF4F608181E00E941D028FE99FE00197AF
:10017000F1F700C0000061E086E10E94140160E038
:1001800087E10E941401E12F012E000CFF0BE05AC1
:10019000FF4F608181E00E941D028FE99FE001977F
:1001A000F1F700C00000219602C0C0E0D0E0C938DD
:1001B00093E1D90740F2115069E001C0162F1123D5
:1001C000A4F701500023D4F7DF91CF911F910F9135
:1001D00008951F93CF93DF9300D0CDB7DEB7182FCC
:1001E00081E089831A82BE016F5F7F4F812F0E9459
:1001F0009B0106C0BE016E5F7F4F812F0E949B0155
:100200008A818823B9F38FE39CE90197F1F700C055
:10021000000089810F900F90DF91CF911F91089579
:1002200085E10E94DC010895982F96959695969504
:100230008770662309F43FC0613009F07BC09130BC
:1002400099F028F09230E9F0933041F108954BB3E2
:1002500021E030E0B90102C0660F771F8A95E2F70E
:10026000CB01842B8BBB089548B321E030E0B9016A
:1002700002C0660F771F8A95E2F7CB01842B88BBFB
:10028000089545B321E030E0B90102C0660F771F41
:100290008A95E2F7CB01842B85BB089542B321E018
:1002A00030E0B90102C0660F771F8A95E2F7CB01F3
:1002B000842B82BB08959130A1F028F09230F9F0A0
:1002C000933059F108954BB321E030E0B90102C0F9
:1002D000660F771F8A95E2F7CB01809584238BBB4D
:1002E000089548B321E030E0B90102C0660F771FDE
:1002F0008A95E2F7CB018095842388BB089545B3A6
:1003000021E030E0B90102C0660F771F8A95E2F75D
:10031000CB018095842385BB089542B321E030E072
:10032000B90102C0660F771F8A95E2F7CB0180956D
:10033000842382BB0895982F9695969596958770FD
:10034000913099F028F09230E9F0933041F108951E
:1003500029B330E0A90102C0559547958A95E2F787
:10036000CA018170FB018083089526B330E0A901A2
:1003700002C0559547958A95E2F7CA018170FB0145
:100380008083089523B330E0A90102C055954795B5
:100390008A95E2F7CA018170FB018083089520B33A
:1003A00030E0A90102C0559547958A95E2F7CA0148
:1003B0008170FB0180830895982F96959695969568
:1003C0008770913099F028F09230E9F0933041F144
:1003D00008954BB321E030E0B90102C0660F771FEA
:1003E0008A95E2F7CB0184278BBB089548B321E0BF
:1003F00030E0B90102C0660F771F8A95E2F7CB01A2
:10040000842788BB089545B321E030E0B90102C0DC
:10041000660F771F8A95E2F7CB01842785BB089585
:1004200042B321E030E0B90102C0660F771F8A9520
:10043000E2F7CB01842782BB089586958695869541
:10044000813041F028F0823039F0833039F008955E
:100450006BBB089568BB089565BB089562BB0895A2
:1004600090E07EC0E92FF0E0EE0FFF1FE659FF4F4E
:100470008081282F269526952695877031813323F4
:10048000B9F1313009F06BC0213089F028F0223009
:10049000C9F0233011F163C04AB321E030E002C05B
:1004A000220F331F8A95E2F7242B2ABB58C047B38B
:1004B00021E030E002C0220F331F8A95E2F7242B9F
:1004C00027BB4DC044B321E030E002C0220F331FF0
:1004D0008A95E2F7242B24BB42C041B321E030E0EF
:1004E00002C0220F331F8A95E2F7242B21BB37C0AD
:1004F000213091F028F02230D9F0233029F12FC09B
:100500004AB321E030E002C0220F331F8A95E2F7A0
:10051000209524232ABB23C047B321E030E002C04A
:10052000220F331F8A95E2F72095242327BB17C09B
:1005300044B321E030E002C0220F331F8A95E2F776
:100540002095242324BB0BC041B321E030E002C03E
:10055000220F331F8A95E2F72095242321BB9F5F4A
:0C0560009F3008F47FCF0895F894FFCF7F
:10056C007E0CB69ECCDAFA0EFECE1A001B001C00D6
:10057C00130116011701000101010201030104011D
:08058C00050106010701080149
:00000001FF
